:020000040800F2
:100000000000022001220008790900087B0900088D
:100010007D0900087F090008810900080000000030
:10002000000000000000000000000000830900083C
:1000300085090008000000008709000889090008F8
:1000400051220008512200085122000851220008C4
:1000500051220008512200085122000851220008B4
:1000600051220008512200085122000851220008A4
:100070005122000851220008512200085122000894
:100080005122000851220008512200085122000884
:100090005122000851220008512200085122000874
:1000A0005122000851220008512200085122000864
:1000B0005122000851220008512200085122000854
:1000C0005122000851220008512200085122000844
:1000D000512200089109000851220008512200080D
:1000E0005122000851220008512200085122000824
:1000F0005122000851220008512200085122000814
:100100005122000851220008512200085122000803
:1001100051220008512200085122000851220008F3
:1001200051220008512200085122000851220008E3
:1001300051220008512200085122000851220008D3
:1001400051220008512200085122000851220008C3
:1001500051220008512200085122000851220008B3
:1001600051220008512200085122000851220008A3
:10017000512200085122000851220008000000000E
:08018000512200085122000881
:1001880010B5054C237833B9044B13B10448AFF3C9
:1001980000800123237010BD5C01002000000000D6
:1001A800AC22000808B5034B1BB103490348AFF361
:1001B800008008BD0000000060010020AC2200089B
:1001C80053B94AB9002908BF00281CBF4FF0FF31B6
:1001D8004FF0FF3000F074B9ADF1080C6DE904CEB2
:1001E80000F006F8DDF804E0DDE9022304B070470A
:1001F8002DE9F047089D04468E46002B4DD18A42D2
:10020800944669D9B2FA82F252B101FA02F3C2F104
:10021800200120FA01F10CFA02FC41EA030E944095
:100228004FEA1C48210CBEFBF8F61FFA8CF708FBB6
:1002380016E341EA034306FB07F199420AD91CEB8E
:10024800030306F1FF3080F01F81994240F21C81C0
:10025800023E63445B1AA4B2B3FBF8F008FB103308
:1002680044EA034400FB07F7A7420AD91CEB04043D
:1002780000F1FF3380F00A81A74240F2078164440D
:10028800023840EA0640E41B00261DB1D440002392
:10029800C5E900433146BDE8F0878B4209D9002DF6
:1002A80000F0EF800026C5E9000130463146BDE880
:1002B800F087B3FA83F6002E4AD18B4202D38242EA
:1002C80000F2F980841A61EB030301209E46002D99
:1002D800E0D0C5E9004EDDE702B9FFDEB2FA82F2EE
:1002E800002A40F09280A1EB0C014FEA1C471FFA4C
:1002F8008CFE0126200CB1FBF7F307FB131140EA33
:1003080001410EFB03F0884208D91CEB010103F1FF
:10031800FF3802D2884200F2CB804346091AA4B2C1
:10032800B1FBF7F007FB101144EA01440EFB00FE95
:10033800A64508D91CEB040400F1FF3102D2A645FA
:1003480000F2BB800846A4EB0E0440EA03409CE799
:10035800C6F12007B34022FA07FC4CEA030C20FA46
:1003680007F401FA06F31C43F9404FEA1C4900FA66
:1003780006F3B1FBF9F8200C1FFA8CFE09FB1811E3
:1003880040EA014108FB0EF0884202FA06F20BD956
:100398001CEB010108F1FF3A80F08880884240F2A6
:1003A8008580A8F102086144091AA4B2B1FBF9F0EA
:1003B80009FB101144EA014100FB0EFE8E4508D9E5
:1003C8001CEB010100F1FF346CD28E456AD902386A
:1003D800614440EA0840A0FB0294A1EB0E01A1424F
:1003E800C846A64656D353D05DB1B3EB080261EBBD
:1003F8000E0101FA07F722FA06F3F1401F43C5E997
:10040800007100263146BDE8F087C2F12003D840CC
:100418000CFA02FC21FA03F3914001434FEA1C470E
:100428001FFA8CFEB3FBF7F007FB10360B0C43EA00
:10043800064300FB0EF69E4204FA02F408D91CEBB0
:10044800030300F1FF382FD29E422DD902386344AE
:100458009B1B89B2B3FBF7F607FB163341EA03414E
:1004680006FB0EF38B4208D91CEB010106F1FF389D
:1004780016D28B4214D9023E6144C91A46EA004694
:1004880038E72E46284605E70646E3E61846F8E626
:100498004B45A9D2B9EB020864EB0C0E0138A3E76F
:1004A8004646EAE7204694E74046D1E7D0467BE750
:1004B800023B614432E7304609E76444023842E7C8
:1004C800704700BF034B1A6800235362536A834284
:1004D800FCD370479403002000EB8000024B03EB31
:1004E80040004254704700BFA00200204FF0000CAB
:1004F8000DE00CEB8C02094901EB4202D0540133A8
:10050800DBB2092BF5D90CF1010C5FFA8CFCBCF1BC
:100518000F0F01D80023F4E7704700BFA0020020A6
:1005280008B503221349144801F049FE022809D0EE
:10053800104B1878AA2806D00F2803D80D4B5978E5
:1005480009290FD908BD5B78BB2BF5D1094B9B78DE
:10055800FF2B03D00120FFF7C9FFF3E70020FFF7C7
:10056800C5FFEFE79A78FF3A18BF0122FFF7B4FFFB
:10057800E8E700BF40030020DC03002038B5002571
:1005880025E0FF2329498B7002EBC202284B1A444D
:10059800002313540322274801F003FC0134E4B27A
:1005A800082C12D82A46204605EBC501204B0B44DF
:1005B8001B5D012BF2D11D4B1D705C701E4B0B4453
:1005C8001B5D012BDDD00023DCE70135EDB20F2DDB
:1005D80001D80024E4E7002414E0AC2100E0AB21BA
:1005E800124B5970154B9B5C012B1BD000230F49F4
:1005F8008B70134B0020985403220E4801F0D1FB56
:100608000134E4B2022C0FD822460D4B1B5D012B9E
:10061800F6D1064BAA211970002CE0D0012CDCD0B1
:10062800AD21DDE7FF23E2E738BD00BF440300202A
:1006380008020020DC030020780100209C02002032
:100648009802002010B53220FFF73CFF00240AE092
:10065800474B03EBC402918853F8340001F064F966
:10066800012816D00134022C1EDC414B03EBC402D6
:10067800918853F8340001F057F90028E8D13D4B30
:100688001B5D002BE4D101233A4A13553A4A13550E
:10069800E8E7384B1B5D012BE4D1364B00221A5595
:1006A800354B01221A55DDE700240AE0334B03EBF2
:1006B800C402918853F8340001F036F901282FD08C
:1006C8000134082C50DC2D4B03EBC402918853F8FD
:1006D800340001F029F90028E8D1294B1B7803EBF5
:1006E800C303284A13441B5D002BDFD14FF49670D7
:1006F800FFF7E8FE214B03EBC402918853F834005E
:1007080001F012F90028DBD11D4B1B7803EBC30362
:100718001C4A1A44012111551B4A13441955CFE7A5
:10072800174B1B7803EBC303164A13441B5D012BBD
:10073800C6D14FF49670FFF7C5FE104B03EBC40209
:10074800918853F8340001F0EFF80128B8D10C4B28
:100758001B7803EBC3030B4A1A44002111550A4ABC
:10076800134401221A55ABE76420FFF7ABFE10BD16
:10077800000000209C020020980200203800002081
:100788009F020020780100200802002072B6FEE7D0
:1007980000B595B03022002108A801F07BFD0023A8
:1007A8000393049305930693079301931F4A116CCF
:1007B80041F080511164126C02F080520192019A4A
:1007C80002931B4A116841F480411160126802F4D7
:1007D80080420292029A0222089201210B91102172
:1007E8000C910E920F9308231093A8231193129241
:1007F8000423139308A800F081FC98B90F230393EE
:1008080002230493002305934FF4A05306934FF457
:1008180080530793052103A800F0BEFE20B915B048
:100828005DF804FBFFF7B2FFFFF7B0FF00380240A6
:100838000070004010B501F073F9FFF7A9FF00F050
:10084800D1F800F01DFA00F0B3F900F07FF9404844
:1008580000F070FA3C213F4800F0A4FB002409E0B6
:100868003D4B03EBC4010122898853F8340001F0A1
:1008780062F801340F2CF3DD002409E0374B03EB59
:10088800C4010122898853F8340001F054F8013476
:10089800092CF3DD4FF0000E0DE00EEBCE0C3049C5
:1008A80061440020C8542F4A6244D0540133082BB5
:1008B800F3DD0EF1010EBEF10F0F01DC0023F6E7A8
:1008C8000120FFF713FE002409E0274B03EBC401C6
:1008D8000022898853F8340001F02DF80134032CE4
:1008E800F3DD01240CE0214B00221A7084F001048E
:1008F8000EE0FFF7A7FE18E01C4A137801331370C7
:10090800FFF70EFEFFF73AFE184B1B78102BEAD0C4
:10091800164B1878104B03EBC0010022898853F856
:10092800300001F008F8002CE3D1104B18780A4B7E
:1009380003EBC0010122898853F8300000F0FBFF67
:10094800002CD9D14FF4FA70FFF7BCFDD4E700BFF3
:10095800940300204C0300208000002000010020A8
:100968007801002008020020180000209F020020C3
:10097800FEE7FEE7FEE7FEE7FEE7704770477047D1
:1009880008B501F0E7F808BD08B5024801F0BAFA61
:1009980008BD00BFDC03002082B0002100910B4B92
:1009A8005A6C42F480425A645A6C02F480420092B3
:1009B800009A01911A6C42F080521A641B6C03F081
:1009C80080530193019B02B0704700BF003802407A
:1009D800034AD2F8883043F47003C2F8883070476D
:1009E80000ED00E02DE9F0438BB000240594069457
:1009F80007940894099400944E4B1A6B42F0100225
:100A08001A631A6B02F010020092009A01941A6B92
:100A180042F004021A631A6B02F004020192019A6E
:100A280002941A6B42F001021A631A6B02F0010277
:100A38000292029A03941A6B42F002021A631A6B2A
:100A480002F002020392039A04941A6B42F008021D
:100A58001A631B6B03F008030493049BDFF8E4900C
:100A6800224649F6CF11484600F065FFDFF8D880E6
:100A780022464EF2FF01404600F05DFF2E4F22460F
:100A88004FF4FE51384600F056FF2C4E2246E8211E
:100A9800304600F050FF4023059306940125079542
:100AA80005A9274800F04EFE42F20F03059306946D
:100AB800079505A9384600F045FE49F6CF1305937A
:100AC80006950794089405A9484600F03BFE4FF4A4
:100AD800004305930694079505A9304600F032FEB9
:100AE8004FF4F85305930694079505A9404600F07E
:100AF80029FE4EF2FF03059306950794089405A96D
:100B0800404600F01FFE4FF4FE53059306950794E8
:100B1800089405A9384600F015FEE82305930695C4
:100B28000794089405A9304600F00CFE0BB0BDE808
:100B3800F08300BF00380240000802400004024071
:100B48000010024000000240000C024000B58DB0C9
:100B58002422002103A801F09DFB002301930293A6
:100B68001148124A0260436083604FF6FF72C26008
:100B7800036143618361012303930593099303A9E7
:100B880000F0A6F950B900230193029301A9064881
:100B980000F06EFA28B90DB05DF804FBFFF7F6FD1A
:100BA800F1E7FFF7F3FDF6E74C03002000000140F2
:100BB80008B50948094B0360A723436000238360F5
:100BC8004FF6FF72C2600361836100F055F900B906
:100BD80008BDFFF7DBFDFBE794030020004401405C
:100BE80000B589B0002303930493059306930793F4
:100BF8000268154B9A4202D009B05DF804FB002147
:100C0800019103F59C335A6C42F001025A645A6C04
:100C180002F001020192019A02911A6B42F010024D
:100C28001A631B6B03F010030293029B4FF42063BB
:100C380003930223049301230593079303A903480D
:100C480000F080FDD8E700BF00000140001002401E
:100C58000268094B9A4200D0704782B00023019382
:100C6800064B5A6C42F400325A645B6C03F400334E
:100C78000193019B02B070470044014000380240D4
:100C880008B50A480A4B03604FF4E1334360002378
:100C98008360C36003610C2242618361C36101F018
:100CA80051F800B908BDFFF771FDFBE7DC03002030
:100CB8000010014010B588B00023039304930593F6
:100CC80006930793026803F1804303F588339A4239
:100CD80001D008B010BD0024019403F594335A6C78
:100CE80042F010025A645A6C02F010020192019A02
:100CF80002941A6B42F001021A631B6B03F00103A2
:100D08000293029B4FF4C0630393022304930323CB
:100D180006930723079303A9054800F013FD22460D
:100D28002146252000F07CFE252000F0B1FED0E70A
:100D38000000024090F83D30DBB2012B32D1022393
:100D480080F83D300368194A934220D0B3F1804FB0
:100D58001DD0A2F57C42934219D002F580629342DD
:100D680015D002F58062934211D002F57842934281
:100D78000DD002F57052934209D0A2F594329342F5
:100D880005D01A6842F001021A60002070479A687C
:100D980002F00702062A07D01A6842F001021A6018
:100DA8000020704701207047002070470000014074
:100DB8000368304A904212D0B0F1804F0FD0A2F5AC
:100DC8007C4290420BD002F58062904207D002F537
:100DD8008062904203D002F57842904203D123F01A
:100DE80070034A681343234A90422AD0B0F1804FD7
:100DF80027D0A2F57C42904223D002F5806290422F
:100E08001FD002F5806290421BD002F578429042D2
:100E180017D002F57052904213D002F580629042CA
:100E28000FD002F5806290420BD0A2F59832904222
:100E380007D002F58062904203D002F580629042AA
:100E480003D123F44073CA68134323F080034A692B
:100E5800134303608B68C3620B688362054B984237
:100E680003D003F58063984201D10B690363012322
:100E7800436170470000014040B310B5044690F844
:100E88003D30F3B1022384F83D30214651F8040B7C
:100E9800FFF78EFF012384F8463084F83E3084F84B
:100EA8003F3084F8403084F8413084F8423084F888
:100EB800433084F8443084F8453084F83D300020CD
:100EC80010BD80F83C30FFF7C3FEDBE70120704718
:100ED800002856D0F8B50D46044690F83D30002B52
:100EE8004AD0022384F83D302268936823F4804373
:100EF80023F007039360214651F8040BFFF758FFCE
:100F080021688A688B690E6A2868104323F4407C3C
:100F18002CF0030CAA68AB6942EA032343EA0C03EA
:100F280023F47C4323F0FC03EA69EF6847EA022CC8
:100F38004CEA030C2A6A13032A6943EA021343EAB8
:100F48000C0326F0AA066A686D6942EA0512324364
:100F5800886021688B6123681A62012384F846300F
:100F680084F83E3084F83F3084F8423084F84330C7
:100F780084F83D300020F8BD80F83C30FFF730FEA3
:100F8800AFE70120704701F01F01012303FA01FCBC
:100F9800036A23EA0C030362036A02FA01F10B43B2
:100FA8000362704738B5044690F83E00C0B294F822
:100FB8003F3094F84220D2B294F843C00D46B1B9FC
:100FC800012849D1012A48D1022384F83E3084F807
:100FD80042307DB3042D39D0012200212068FFF76B
:100FE800D2FF012204212068FFF7CDFF27E0DBB202
:100FF8005FFA8CFC042912D0012833D1012B2CD1A3
:10100800012A31D1BCF1010F30D1022384F83E30DE
:1010180084F83F3084F8423084F84330D9E7012B14
:101028001CD1BCF1010F1BD1022384F83F3084F896
:101038004330CEE7012200212068FFF7A4FF226891
:10104800136843F001031360002006E00122042125
:101058002068FFF798FFF2E7012038BD0120FCE780
:101068001846FAE70120F8E71846F6E71046F4E7CD
:1010780090F83C30012B3DD010B4012380F83C306F
:10108800022380F83D3003685A689C6822F0700C8F
:101098000A6842EA0C025A600368174A93421AD057
:1010A800B3F1804F17D0A2F57C42934213D002F5DA
:1010B800806293420FD002F5806293420BD002F512
:1010C8007842934207D002F57052934203D0A2F5BA
:1010D8009432934204D124F080044A6814439C60FB
:1010E800012380F83D30002380F83C3018465DF835
:1010F800044B70470220704700000140002800F0B0
:10110800E08170B582B00446036813F0010F3BD04C
:101118009F4B9B6803F00C03042B2CD09C4B9B68C3
:1011280003F00C03082B21D06368B3F5803F4FD040
:10113800B3F5A02F52D0964B1A6822F480321A6069
:101148001A6822F480221A606368002B50D000F0DD
:101158000DFD05468E4B1B6813F4003F14D100F0BB
:1011680005FD401B6428F5D90320B1E1884B5B6875
:1011780013F4800FD8D0864B1B6813F4003F03D0BC
:101188006368002B00F09F81236813F0020F54D08E
:101198007F4B9B6813F00C0F3ED07D4B9B6803F090
:1011A8000C03082B33D0E368002B68D0794B01225D
:1011B8001A6000F0DBFC0546754B1B6813F0020F44
:1011C80054D100F0D3FC401B0228F5D903207FE15D
:1011D8006F4A136843F480331360B5E76C4B1A68A1
:1011E80042F480221A601A6842F480321A60ABE72F
:1011F80000F0BCFC0546664B1B6813F4003FC3D0E7
:1012080000F0B4FC401B6428F5D9032060E1604B72
:101218005B6813F4800FC6D15D4B1B6813F0020F97
:1012280003D0E368012B40F05081594A136823F03A
:10123800F803216943EAC1031360236813F0080F18
:1012480042D063696BB3534B0122C3F8802E00F080
:101258008DFC05464E4B5B6F13F0020F34D100F046
:1012680085FC401B0228F5D9032031E1484A136860
:1012780023F0F803216943EAC1031360DDE7454B16
:1012880000221A6000F072FC0546414B1B6813F0FF
:10129800020FD2D000F06AFC401B0228F5D90320C7
:1012A80016E13C4B0022C3F8802E00F05FFC054697
:1012B800374B5B6F13F0020F06D000F057FC401B52
:1012C8000228F5D9032003E1236813F0040F77D02F
:1012D8002F4B1B6C13F0805F33D1002301932C4BF1
:1012E8001A6C42F080521A641B6C03F0805301930D
:1012F800019B0125284B1B6813F4807F23D0A3682A
:10130800012B34D0052B38D0214B1A6F22F0010263
:101318001A671A6F22F004021A67A368002B3DD0DF
:1013280000F024FC06461A4B1B6F13F0020F46D13F
:1013380000F01CFC801B41F288339842F3D903204B
:10134800C6E00025D6E7144A136843F48073136097
:1013580000F00CFC0646104B1B6813F4807FCED1BE
:1013680000F004FC801B0228F5D90320B0E0084AED
:10137800136F43F001031367CFE7054B1A6F42F071
:1013880004021A671A6F42F001021A67C5E700BF24
:1013980000380240000047420070004000F0E6FBC1
:1013A8000646524B1B6F13F0020F08D000F0DEFB0D
:1013B800801B41F288339842F3D9032088E0EDB9C5
:1013C800A369002B00F08380484A926802F00C025F
:1013D800082A51D0022B17D0454B00221A6600F07C
:1013E800C5FB0446414B1B6813F0007F42D000F058
:1013F800BDFB001B0228F5D9032069E03B4A136CAA
:1014080023F080531364DBE7394B00221A6600F09F
:10141800ADFB0546354B1B6813F0007F06D000F086
:10142800A5FB401B0228F5D9032051E0E369226A95
:101438001343626A43EA8213A26A5208013A43EAF2
:101448000243E26A43EA0263284A5360284B0122B6
:101458001A6600F08BFB0446244B1B6813F0007FD0
:1014680006D100F083FB001B0228F5D903202FE0EA
:1014780000202DE000202BE0012B2BD01B4B5B68BC
:1014880003F48001E269914226D103F03F02216A08
:101498008A4223D1616A47F6C0721A40B2EB811FB3
:1014A8001ED103F44031A26A5208013AB1EB024F4F
:1014B80018D103F07063E26AB3EB026F14D1002015
:1014C80006E001207047012002E0012000E0002032
:1014D80002B070BD0120FBE70120F9E70120F7E722
:1014E8000120F5E70120F3E70120F1E70038024089
:1014F8000000474208B5254B9B6803F00C03042BFA
:101508003FD0082B3FD1214B5A6802F03F025B685D
:1015180013F4800F12D01D4B5968C1F388111C4871
:101528000023A1FB0001FEF74BFE184B5B68C3F3D9
:10153800014301335B00B0FBF3F025E0134B59681E
:10154800C1F3881C4FEA4C11B1EB0C006EEB0E0E88
:101558004FEA8E1343EA90638101091A63EB0E0385
:10156800DB0043EA5173C90011EB0C0C43F1000393
:10157800990200234FEA8C2041EA9C51FEF720FE95
:10158800D3E7034800E0034808BD00BF0038024025
:1015980040787D010024F400002800F09B8070B59D
:1015A8000D4604464F4B1B6803F007038B4208D2D5
:1015B800CBB24C4A1370136803F007038B4240F018
:1015C8008B80236813F0020F17D013F0040F04D098
:1015D800454A936843F4E0539360236813F0080F77
:1015E80004D0414A936843F4604393603E4A936849
:1015F80023F0F003A1680B439360236813F0010FF5
:1016080032D06368012B21D09A1E012A25D9364A87
:10161800126812F0020F61D033498A6822F003027F
:1016280013438B6000F0A2FA06462F4B9B6803F029
:101638000C036268B3EB820F16D000F097FA801B98
:1016480041F288339842F0D9032042E0264A1268D2
:1016580012F4003FE0D101203BE0234A126812F067
:10166800007FD9D1012034E01E4B1B6803F007032B
:10167800AB4207D9EAB21B4B1A701B6803F0070389
:10168800AB422DD1236813F0040F06D0164A936895
:1016980023F4E053E1680B439360236813F0080FC9
:1016A80007D0114A936823F46043216943EAC103D0
:1016B8009360FFF71FFF0C4B9B68C3F303130B4AA0
:1016C800D35CD8400A4B18600A4B186800F002FA3D
:1016D800002070BD012070470120FAE70120F8E7DB
:1016E8000120F6E7003C024000380240C42200080E
:1016F8005001002058010020014B1868704700BFB6
:101708005001002008B5FFF7F7FF044B9B68C3F3AF
:101718008223034AD35CD84008BD00BF003802408A
:10172800D422000808B5FFF7E7FF044B9B68C3F312
:101738004233034AD35CD84008BD00BF003802409A
:10174800D422000800230F2B00F2E48070B582B089
:1017580060E085685E000324B44025EA0405CC688F
:10176800B4402C438460456825EA02054C68C4F3FC
:1017780000129A402A4342605AE0DC08083450F8C4
:10178800246003F0070295000F22AA4026EA020E01
:101798000A69AA4042EA0E0240F824205CE00722C7
:1017A80000E0002202FA0EF22A4302345A4D45F8AC
:1017B80024205A4A94686FEA0C0224EA0C054E6801
:1017C80016F4801F01D04CEA0405544CA560E46867
:1017D80002EA04054E6816F4001F01D04CEA04051D
:1017E8004E4CE560646802EA04054E6816F4003F52
:1017F80001D04CEA0405494C6560246822404D68D4
:1018080015F4803F01D04CEA0402444C22600133B5
:101818000F2B7DD801229A400C6804EA020C32EAA8
:101828000404F4D14C6804F00304013C012C90D961
:101838004A6802F00302032A09D0C4685D00032243
:10184800AA4024EA02048A68AA402243C2604A687D
:1018580002F00302022A90D004684FEA430E0322E2
:1018680002FA0EF224EA02044A6802F0030202FABB
:101878000EF2224302604A6812F4403FC7D00022A9
:101888000192274A546C44F480445464526C02F424
:1018980080420192019A9C08A51C1F4A52F82550C3
:1018A80003F003024FEA820E0F2202FA0EF225EA33
:1018B80002051C4A90423FF474AF02F580629042E0
:1018C8001AD002F58062904218D002F580629042E8
:1018D80016D002F58062904214D002F580629042E0
:1018E80012D002F58062904210D002F580629042D8
:1018F8003FF455AF082255E7012253E7022251E78A
:1019080003224FE704224DE705224BE7062249E769
:1019180002B070BD704700BF00380140003C014074
:1019280000380240000002400369194201D001203A
:101938007047002070470AB18161704709048161CE
:10194800704770B50446866D00F010F994F835308C
:10195800DBB2022B06D080236365002384F8343081
:10196800012070BD05462268136823F01603136032
:101978002268536923F080035361236CE3B1226822
:10198800136823F0080313602268136823F0010327
:10199800136023681B6813F0010F11D000F0E6F8FC
:1019A800431B052BF5D920236365032084F83500F4
:1019B800002384F83430D4E7A36C002BDFD1E3E7AD
:1019C800E26D3F239340B360012384F83530002053
:1019D80084F83400C5E790F83530DBB2022B03D029
:1019E8008023436501207047052380F8353002685D
:1019F800136823F00103136000207047074AD36877
:101A080023F4E0631B041B0C000200F4E0600343B2
:101A180043F0BF6343F40033D360704700ED00E048
:101A280000B5194BDB68C3F30223C3F1070CBCF103
:101A3800040F28BF4FF0040C03F1040EBEF1060F8B
:101A480018D9033B4FF0FF3E0EFA0CFC21EA0C01BB
:101A580099400EFA03F322EA0303194300280BDB2B
:101A68000901C9B200F1604000F5614080F8001337
:101A78005DF804FB0023E5E700F00F000901C9B297
:101A8800024B1954F4E700BF00ED00E014ED00E04C
:101A9800002807DB00F01F02400901239340024A97
:101AA80042F82030704700BF00E100E00138B0F193
:101AB800807F0BD24FF0E0235861054AF02182F86D
:101AC80023100020986107221A617047012070478F
:101AD80000ED00E010B504460E4B18784FF47A7309
:101AE800B3FBF0F30C4A1068B0FBF3F0FFF7DEFF2E
:101AF80068B90F2C01D901200AE0002221464FF0D5
:101B0800FF30FFF78DFF054B1C60002000E001202F
:101B180010BD00BF540100205001002058010020D2
:101B280008B50B4B1A6842F400721A601A6842F43E
:101B380080621A601A6842F480721A600320FFF704
:101B48005DFF0F20FFF7C6FFFEF726FF002008BD48
:101B5800003C0240034A1168034B1B780B44136096
:101B6800704700BF2004002054010020014B186872
:101B7800704700BF20040020026802F10C0353E8FC
:101B8800003F23F490730C3242E800310029F3D16E
:101B9800026802F1140353E8003F23F001031432F2
:101BA80042E800310029F3D1036B012B05D0202333
:101BB80080F83E30002303637047026802F10C038B
:101BC80053E8003F23F010030C3242E800310029AB
:101BD800F3D1ECE790F83D30DBB2212B01D00220A5
:101BE80070478368B3F5805F17D0036A5A1C026296
:101BF8001A7803685A60C38C9BB2013B9BB2C384BA
:101C08004BB90268D36823F08003D3600268D368B5
:101C180043F04003D360002070470369002BE4D1F0
:101C2800036A1B880268C3F308035360036A02331C
:101C38000362E0E738B504460268136923F44053A9
:101C4800C1680B43136183680269134342691343F4
:101C5800C2691A430168CB6823F4164323F00C03C6
:101C68001343CB600268536923F4407381690B43C3
:101C780053610368314A934206D002F58062934269
:101C880002D0FFF73FFD01E0FFF74CFDE369B3F534
:101C9800004F29D00021031849411B1841F10001C8
:101CA800C90041EA5371DB00181863684FEA8302E0
:101CB8004FEA937341F10001FEF782FA204DA5FB2C
:101CC80000325109642303FB11031B013233A5FBC6
:101CD80003235B0903F0F00202EB011203F00F0388
:101CE800216813448B6038BD0023021843EB0301BD
:101CF800121841F10001C90041EA5271D2001018CE
:101D080041F10001626892185B41FEF759FA0C4DE7
:101D1800A5FB00325109642303FB1103DB003233B6
:101D2800A5FB03235B095A0002F4F87202EB0112C7
:101D380003F00703216813448B60D4E700100140C7
:101D48001F85EB5158B310B5044690F83D300BB3DE
:101D5800242384F83D302268D36823F40053D360E9
:101D68002046FFF767FF2268136923F49043136145
:101D78002268536923F02A0353612268D36843F425
:101D88000053D36000202064202384F83D3084F879
:101D98003E3010BD80F83C30FEF78CFFD8E70120BC
:101DA800704790F83D30DBB2202B19D1D1B1DAB1B0
:101DB80090F83C30012B19D0012380F83C300162A7
:101DC8008284C28400230364212280F83D2080F8A5
:101DD8003C300168CA6842F08002CA601846704701
:101DE8000220704701207047012070470220704789
:101DF800704708B50168CA6822F04002CA6020220C
:101E080080F83D20FFF7F4FF002008BD70477047B9
:101E180008B5806B0023C385C384FFF7F8FF08BDAE
:101E2800704790F83E30DBB2222B67D18368B3F558
:101E3800805F4DD0826AB3F5805F04D0002B54D107
:101E48000369002B51D103685B681370836A0133FF
:101E58008362C38D9BB2013B9BB2C385002B4FD1DC
:101E680000B583B00268D36823F02003D36002680A
:101E7800D36823F48073D3600268536923F00103A5
:101E88005361202380F83E30036B012B33D10023AC
:101E98000363026802F10C0353E8003F23F01003C8
:101EA8000C3242E800310029F3D103681A6812F0B5
:101EB800100F06D0002201921A6801925B68019304
:101EC800019B818DFFF7ACFF002003B05DF804FB98
:101ED8000269002AAED1826A03685B68C3F308030B
:101EE8001380836A02338362B3E703685B6803F095
:101EF8007F031370AAE7FFF789FFE5E70220704721
:101F08000020704730B583B0044602681368D06873
:101F1800516913F00F0505D113F0200F02D010F00E
:101F2800200F19D12DB111F0010119D110F4907FB2
:101F380016D1216B01297DD013F0800F03D010F04A
:101F4800800F40F0158113F0400F03D010F0400FC0
:101F580040F0128103B030BD2046FFF762FFF9E779
:101F680013F0010F06D010F4807F03D0226C42F0EA
:101F78000102226413F0040F04D019B1226C42F05C
:101F88000202226413F0020F04D019B1226C42F04D
:101F98000402226413F0080F07D010F0200F00D1BC
:101FA80019B1226C42F008022264226C002AD1D0B6
:101FB80013F0200F02D010F0200F29D123685B699D
:101FC80003F04003226C12F0080F00D163B32046DF
:101FD800FFF7D2FD23685B6913F0400F20D0226819
:101FE80002F1140353E8003F23F04003143242E89F
:101FF80000310029F3D1A36B73B1614A1A65A06B54
:10200800FFF7E9FC0028A5D0A06B036D9847A1E76E
:102018002046FFF706FFD1E72046FFF7F8FE99E7CD
:102028002046FFF7F4FE95E72046FFF7F0FE002371
:1020380023648FE713F0100F3FF47EAF10F0100FFA
:102048003FF47AAF00230193136801935368019317
:10205800019B536913F0400F50D0A26B13685B6863
:102068009BB2002B3FF476AFA18D99427FF672AFF9
:10207800E385D369B3F5807F37D0226802F10C037A
:1020880053E8003F23F480730C3242E80031002902
:10209800F3D1226802F1140353E8003F23F001034F
:1020A800143242E800310029F3D1226802F1140306
:1020B80053E8003F23F04003143242E8003100297E
:1020C800F3D1202384F83E3000232363226802F1F1
:1020D8000C0353E8003F23F010030C3242E80031B0
:1020E8000029F3D1A06BFFF72CFCA18DE38D9BB2E7
:1020F800C91A89B22046FFF793FE2BE7A18DE38D1D
:102108009BB2C91A89B2E38D9BB2002B3FF422AF70
:1021180000293FF41FAF226802F10C0353E8003F87
:1021280023F490730C3242E800300028F3D122687F
:1021380002F1140353E8003F23F00103143242E88C
:1021480000300028F3D1202384F83E300023236395
:10215800226802F10C0353E8003F23F010030C320D
:1021680042E800300028F3D12046FFF759FEF1E697
:102178002046FFF72FFDEDE62046FFF73AFEE9E699
:10218800191E000881628285C28500230364222209
:1021980080F83E2080F83C30036923B10268D36898
:1021A80043F48073D3600268536943F001035361B9
:1021B8000268D36843F02003D3600020704708B555
:1021C80090F83E30DBB2202B0DD171B17AB190F886
:1021D8003C30012B0DD0012380F83C3000230363F1
:1021E800FFF7D0FF00E0022008BD0120FCE7012036
:1021F800FAE70220F8E70000DFF834D00D480E496E
:102208000E4A002302E0D458C4500433C4188C4248
:10221800F9D30B4A0B4C002301E013600432A242AD
:10222800FBD3FEF7D5FB00F011F8FEF703FB704770
:1022380000000220000000205C010020EC220008C1
:102248005C01002024040020FEE7000070B50D4D5D
:102258000D4C641BA4100026A64209D10B4D0C4C52
:1022680000F020F8641BA4100026A64205D170BD1A
:1022780055F8043B98470136EEE755F8043B984774
:102288000136F2E7E4220008E4220008E42200080C
:10229800E822000802440346934200D1704703F83D
:1022A800011BF9E7F8B500BFF8BC08BC9E467047AB
:0C22B800F8B500BFF8BC08BC9E4670479B
:1022C40000000000000000000102030406070809E2
:0822D4000000000001020304F8
:0822DC001CDFFF7F0100000080
:0422E400AD01000840
:0422E8008901000860
:1022EC000008024002000000000802400400000048
:1022FC00000802400800000000000240010000003D
:10230C000000024002000000000002400400000037
:10231C000000024008000000000C02400010000009
:10232C00000C024000080000000C024000040000F9
:10233C00000C024000020000000C024000010000F2
:10234C000004024000800000001002404000000029
:10235C0000080240002000000008024001000000BC
:10236C00000C024000200000000C02400040000065
:10237C00000C0240008000000008024040000000F9
:10238C00000802408000000000080240000100002C
:10239C0000080240000200000000024000010000A2
:1023AC000000024000080000000002400010000085
:1023BC000000024000800000000802400004000001
:1023CC000008024000080000000802400010000055
:1023DC00000C024001000000000C02400200000052
:1023EC00000C024004000000000C02400800000039
:1023FC00000C024010000000000C02402000000005
:10240C00000C024040000000000C02408000000064
:10241C0000040240080000000004024020000000FC
:10242C000004024040000000000402408000000054
:0C243C000024F40001000000100000006B
:0400000508002201CC
:00000001FF
